{
    "contractName": "Group",
    "abi": [
        {
            "inputs": [
                {
                    "internalType": "address",
                    "name": "owner",
                    "type": "address"
                },
                {
                    "internalType": "string",
                    "name": "name",
                    "type": "string"
                },
                {
                    "internalType": "string",
                    "name": "description",
                    "type": "string"
                },
                {
                    "internalType": "string",
                    "name": "image",
                    "type": "string"
                }
            ],
            "stateMutability": "nonpayable",
            "type": "constructor"
        },
        {
            "inputs": [
                {
                    "internalType": "uint256",
                    "name": "index",
                    "type": "uint256"
                }
            ],
            "name": "acceptRequest",
            "outputs": [],
            "stateMutability": "nonpayable",
            "type": "function"
        },
        {
            "inputs": [
                {
                    "internalType": "address",
                    "name": "fri",
                    "type": "address"
                }
            ],
            "name": "addFriends",
            "outputs": [],
            "stateMutability": "nonpayable",
            "type": "function"
        },
        {
            "inputs": [
                {
                    "internalType": "address",
                    "name": "",
                    "type": "address"
                }
            ],
            "name": "admin",
            "outputs": [
                {
                    "internalType": "bool",
                    "name": "",
                    "type": "bool"
                }
            ],
            "stateMutability": "view",
            "type": "function"
        },
        {
            "inputs": [
                {
                    "internalType": "address",
                    "name": "fri",
                    "type": "address"
                }
            ],
            "name": "appointAdmin",
            "outputs": [],
            "stateMutability": "nonpayable",
            "type": "function"
        },
        {
            "inputs": [
                {
                    "internalType": "uint256",
                    "name": "index",
                    "type": "uint256"
                },
                {
                    "internalType": "uint256",
                    "name": "tokenAmount",
                    "type": "uint256"
                }
            ],
            "name": "approveRequest",
            "outputs": [],
            "stateMutability": "nonpayable",
            "type": "function"
        },
        {
            "inputs": [
                {
                    "internalType": "uint256",
                    "name": "index",
                    "type": "uint256"
                }
            ],
            "name": "cancelRequest",
            "outputs": [],
            "stateMutability": "nonpayable",
            "type": "function"
        },
        {
            "inputs": [
                {
                    "internalType": "address",
                    "name": "caller",
                    "type": "address"
                }
            ],
            "name": "checkFriend",
            "outputs": [
                {
                    "internalType": "bool",
                    "name": "",
                    "type": "bool"
                }
            ],
            "stateMutability": "view",
            "type": "function"
        },
        {
            "inputs": [
                {
                    "internalType": "string",
                    "name": "name",
                    "type": "string"
                },
                {
                    "internalType": "string",
                    "name": "description",
                    "type": "string"
                },
                {
                    "internalType": "uint256",
                    "name": "minCont",
                    "type": "uint256"
                },
                {
                    "internalType": "uint256",
                    "name": "amount",
                    "type": "uint256"
                },
                {
                    "internalType": "address",
                    "name": "recipient",
                    "type": "address"
                }
            ],
            "name": "createRequest",
            "outputs": [],
            "stateMutability": "nonpayable",
            "type": "function"
        },
        {
            "inputs": [
                {
                    "internalType": "string",
                    "name": "name",
                    "type": "string"
                },
                {
                    "internalType": "string",
                    "name": "description",
                    "type": "string"
                },
                {
                    "internalType": "string",
                    "name": "image",
                    "type": "string"
                },
                {
                    "internalType": "address",
                    "name": "caller",
                    "type": "address"
                }
            ],
            "name": "editGroupDetails",
            "outputs": [],
            "stateMutability": "nonpayable",
            "type": "function"
        },
        {
            "inputs": [
                {
                    "internalType": "uint256",
                    "name": "index",
                    "type": "uint256"
                },
                {
                    "internalType": "string",
                    "name": "name",
                    "type": "string"
                },
                {
                    "internalType": "string",
                    "name": "description",
                    "type": "string"
                },
                {
                    "internalType": "uint256",
                    "name": "amount",
                    "type": "uint256"
                },
                {
                    "internalType": "uint256",
                    "name": "minCont",
                    "type": "uint256"
                }
            ],
            "name": "editRequest",
            "outputs": [],
            "stateMutability": "nonpayable",
            "type": "function"
        },
        {
            "inputs": [
                {
                    "internalType": "uint256",
                    "name": "index",
                    "type": "uint256"
                }
            ],
            "name": "finalizeRequest",
            "outputs": [],
            "stateMutability": "nonpayable",
            "type": "function"
        },
        {
            "inputs": [
                {
                    "internalType": "address",
                    "name": "",
                    "type": "address"
                }
            ],
            "name": "friendReqCheck",
            "outputs": [
                {
                    "internalType": "bool",
                    "name": "",
                    "type": "bool"
                }
            ],
            "stateMutability": "view",
            "type": "function"
        },
        {
            "inputs": [
                {
                    "internalType": "address",
                    "name": "",
                    "type": "address"
                }
            ],
            "name": "friends",
            "outputs": [
                {
                    "internalType": "bool",
                    "name": "",
                    "type": "bool"
                }
            ],
            "stateMutability": "view",
            "type": "function"
        },
        {
            "inputs": [],
            "name": "friendsCount",
            "outputs": [
                {
                    "internalType": "uint256",
                    "name": "",
                    "type": "uint256"
                }
            ],
            "stateMutability": "view",
            "type": "function"
        },
        {
            "inputs": [
                {
                    "internalType": "uint256",
                    "name": "",
                    "type": "uint256"
                }
            ],
            "name": "friendsList",
            "outputs": [
                {
                    "internalType": "address",
                    "name": "",
                    "type": "address"
                }
            ],
            "stateMutability": "view",
            "type": "function"
        },
        {
            "inputs": [
                {
                    "internalType": "uint256",
                    "name": "index",
                    "type": "uint256"
                },
                {
                    "internalType": "address",
                    "name": "approver",
                    "type": "address"
                }
            ],
            "name": "getApproverAmount",
            "outputs": [
                {
                    "internalType": "uint256",
                    "name": "",
                    "type": "uint256"
                }
            ],
            "stateMutability": "view",
            "type": "function"
        },
        {
            "inputs": [],
            "name": "getDetails",
            "outputs": [
                {
                    "internalType": "address",
                    "name": "",
                    "type": "address"
                },
                {
                    "internalType": "address[]",
                    "name": "",
                    "type": "address[]"
                },
                {
                    "internalType": "string",
                    "name": "",
                    "type": "string"
                },
                {
                    "internalType": "string",
                    "name": "",
                    "type": "string"
                },
                {
                    "internalType": "string",
                    "name": "",
                    "type": "string"
                },
                {
                    "internalType": "uint256",
                    "name": "",
                    "type": "uint256"
                },
                {
                    "internalType": "uint256",
                    "name": "",
                    "type": "uint256"
                },
                {
                    "internalType": "uint256",
                    "name": "",
                    "type": "uint256"
                }
            ],
            "stateMutability": "view",
            "type": "function"
        },
        {
            "inputs": [
                {
                    "internalType": "uint256",
                    "name": "index",
                    "type": "uint256"
                }
            ],
            "name": "getFriendRequest",
            "outputs": [
                {
                    "internalType": "address",
                    "name": "",
                    "type": "address"
                },
                {
                    "internalType": "bool",
                    "name": "",
                    "type": "bool"
                },
                {
                    "internalType": "bool",
                    "name": "",
                    "type": "bool"
                },
                {
                    "internalType": "uint256",
                    "name": "",
                    "type": "uint256"
                }
            ],
            "stateMutability": "view",
            "type": "function"
        },
        {
            "inputs": [
                {
                    "internalType": "uint256",
                    "name": "index",
                    "type": "uint256"
                }
            ],
            "name": "getRequest1",
            "outputs": [
                {
                    "internalType": "string",
                    "name": "",
                    "type": "string"
                },
                {
                    "internalType": "string",
                    "name": "",
                    "type": "string"
                },
                {
                    "internalType": "address",
                    "name": "",
                    "type": "address"
                },
                {
                    "internalType": "uint256",
                    "name": "",
                    "type": "uint256"
                },
                {
                    "internalType": "uint256",
                    "name": "",
                    "type": "uint256"
                },
                {
                    "internalType": "uint256",
                    "name": "",
                    "type": "uint256"
                }
            ],
            "stateMutability": "view",
            "type": "function"
        },
        {
            "inputs": [
                {
                    "internalType": "uint256",
                    "name": "index",
                    "type": "uint256"
                }
            ],
            "name": "getRequest2",
            "outputs": [
                {
                    "internalType": "uint256",
                    "name": "",
                    "type": "uint256"
                },
                {
                    "internalType": "address",
                    "name": "",
                    "type": "address"
                },
                {
                    "internalType": "uint256",
                    "name": "",
                    "type": "uint256"
                },
                {
                    "internalType": "address[]",
                    "name": "",
                    "type": "address[]"
                },
                {
                    "internalType": "uint256",
                    "name": "",
                    "type": "uint256"
                },
                {
                    "internalType": "bool",
                    "name": "",
                    "type": "bool"
                },
                {
                    "internalType": "bool",
                    "name": "",
                    "type": "bool"
                }
            ],
            "stateMutability": "view",
            "type": "function"
        },
        {
            "inputs": [],
            "name": "groupDescription",
            "outputs": [
                {
                    "internalType": "string",
                    "name": "",
                    "type": "string"
                }
            ],
            "stateMutability": "view",
            "type": "function"
        },
        {
            "inputs": [],
            "name": "groupName",
            "outputs": [
                {
                    "internalType": "string",
                    "name": "",
                    "type": "string"
                }
            ],
            "stateMutability": "view",
            "type": "function"
        },
        {
            "inputs": [],
            "name": "groupOwner",
            "outputs": [
                {
                    "internalType": "address",
                    "name": "",
                    "type": "address"
                }
            ],
            "stateMutability": "view",
            "type": "function"
        },
        {
            "inputs": [],
            "name": "imageUrl",
            "outputs": [
                {
                    "internalType": "string",
                    "name": "",
                    "type": "string"
                }
            ],
            "stateMutability": "view",
            "type": "function"
        },
        {
            "inputs": [],
            "name": "leaveGroup",
            "outputs": [],
            "stateMutability": "nonpayable",
            "type": "function"
        },
        {
            "inputs": [
                {
                    "internalType": "uint256",
                    "name": "index",
                    "type": "uint256"
                }
            ],
            "name": "rejectRequest",
            "outputs": [],
            "stateMutability": "nonpayable",
            "type": "function"
        },
        {
            "inputs": [
                {
                    "internalType": "address",
                    "name": "fri",
                    "type": "address"
                }
            ],
            "name": "removeAdmin",
            "outputs": [],
            "stateMutability": "nonpayable",
            "type": "function"
        },
        {
            "inputs": [
                {
                    "internalType": "address",
                    "name": "fri",
                    "type": "address"
                }
            ],
            "name": "removeFriend",
            "outputs": [],
            "stateMutability": "nonpayable",
            "type": "function"
        },
        {
            "inputs": [],
            "name": "sendFriendRequest",
            "outputs": [],
            "stateMutability": "nonpayable",
            "type": "function"
        },
        {
            "inputs": [
                {
                    "internalType": "uint256",
                    "name": "index",
                    "type": "uint256"
                }
            ],
            "name": "takeAmount",
            "outputs": [],
            "stateMutability": "nonpayable",
            "type": "function"
        },
        {
            "inputs": [],
            "name": "token",
            "outputs": [
                {
                    "internalType": "contract ERC20",
                    "name": "",
                    "type": "address"
                }
            ],
            "stateMutability": "view",
            "type": "function"
        }
    ],
    "bytecode": "608060405234801562000010575f80fd5b50604051620028a7380380620028a7833981016040819052620000339162000203565b5f80546001600160a01b0319166001600160a01b03861617905560016200005b84826200033a565b5060026200006a83826200033a565b5060036200007982826200033a565b50600b80546001600160a01b0319908116735917eaa193f1e5c77ef955fa6b643772d411437a179091556001600160a01b0385165f818152600560209081526040808320805460ff19908116600190811790925560048452828520805482168317905560069093529083208054909216811790915560088054918201815582527ff3f7a9fe364faab93b216da50a3214154f22a0a2b415b23a84c8169e8b636ee30180549093169091179091556007805491620001368362000402565b91905055505050505062000427565b634e487b7160e01b5f52604160045260245ffd5b5f82601f83011262000169575f80fd5b81516001600160401b038082111562000186576200018662000145565b604051601f8301601f19908116603f01168101908282118183101715620001b157620001b162000145565b81604052838152602092508683858801011115620001cd575f80fd5b5f91505b83821015620001f05785820183015181830184015290820190620001d1565b5f93810190920192909252949350505050565b5f805f806080858703121562000217575f80fd5b84516001600160a01b03811681146200022e575f80fd5b60208601519094506001600160401b03808211156200024b575f80fd5b620002598883890162000159565b945060408701519150808211156200026f575f80fd5b6200027d8883890162000159565b9350606087015191508082111562000293575f80fd5b50620002a28782880162000159565b91505092959194509250565b600181811c90821680620002c357607f821691505b602082108103620002e257634e487b7160e01b5f52602260045260245ffd5b50919050565b601f82111562000335575f81815260208120601f850160051c81016020861015620003105750805b601f850160051c820191505b8181101562000331578281556001016200031c565b5050505b505050565b81516001600160401b0381111562000356576200035662000145565b6200036e81620003678454620002ae565b84620002e8565b602080601f831160018114620003a4575f84156200038c5750858301515b5f19600386901b1c1916600185901b17855562000331565b5f85815260208120601f198616915b82811015620003d457888601518255948401946001909101908401620003b3565b5085821015620003f257878501515f19600388901b60f8161c191681555b5050505050600190811b01905550565b5f600182016200042057634e487b7160e01b5f52601160045260245ffd5b5060010190565b61247280620004355f395ff3fe608060405234801561000f575f80fd5b50600436106101dc575f3560e01c8063783cec8011610109578063c463d8ad1161009e578063f69bed911161006e578063f69bed9114610470578063fbbf93a014610483578063fc0c546a1461049f578063fc5ee8ab146104b2575f80fd5b8063c463d8ad1461042b578063cb1fb4901461043e578063da249f2e14610446578063e555134f14610459575f80fd5b806398235663116100d957806398235663146103ea5780639a084995146103fd578063aba8315014610410578063bdf74c3514610418575f80fd5b8063783cec80146103b45780637f97ef38146103bc57806380cee8a5146103cf57806384bcddb6146103e2575f80fd5b80632d7788db1161017f5780634ba1f0981161014f5780634ba1f098146103425780634d32d7aa146103555780635d1f8ad21461036857806363a846f814610392575f80fd5b80632d7788db146102e25780632e25bbba146102f55780633015394c1461031a57806335eb9f2e1461032d575f80fd5b80631785f53c116101ba5780631785f53c1461026f57806318140055146102825780631ddabf7a146102ad5780632c0a90a9146102cf575f80fd5b806303441006146101e05780630a1a0dcc146101f55780630dc9c7251461023d575b5f80fd5b6101f36101ee366004611d6c565b6104d8565b005b610208610203366004611d6c565b610809565b604080516001600160a01b03909516855292151560208501529015159183019190915260608201526080015b60405180910390f35b61025f61024b366004611d9e565b60066020525f908152604090205460ff1681565b6040519015158152602001610234565b6101f361027d366004611d9e565b610865565b61025f610290366004611d9e565b6001600160a01b03165f9081526005602052604090205460ff1690565b61025f6102bb366004611d9e565b60056020525f908152604090205460ff1681565b6101f36102dd366004611dbe565b61091a565b6101f36102f0366004611d6c565b610c4d565b610308610303366004611d6c565b610d07565b60405161023496959493929190611e21565b6101f3610328366004611d6c565b610e87565b610335610f07565b6040516102349190611e74565b6101f3610350366004611d6c565b610f93565b6101f3610363366004611d6c565b611139565b5f5461037a906001600160a01b031681565b6040516001600160a01b039091168152602001610234565b61025f6103a0366004611d9e565b60046020525f908152604090205460ff1681565b6103356112c3565b6101f36103ca366004611f23565b6112d0565b6101f36103dd366004611d9e565b611399565b6101f36114b0565b6101f36103f8366004611d9e565b61160d565b6101f361040b366004611fa5565b61165e565b61033561179f565b61037a610426366004611d6c565b6117ac565b6101f3610439366004611d9e565b6117d4565b6101f36118db565b6101f361045436600461201e565b61199c565b61046260075481565b604051908152602001610234565b61046261047e3660046120b1565b611a00565b61048b611a47565b60405161023498979695949392919061211d565b600b5461037a906001600160a01b031681565b6104c56104c0366004611d6c565b611c8e565b604051610234979695949392919061219e565b336001600160a01b0316600a82815481106104f5576104f56121eb565b5f91825260209091206002600d9092020101546001600160a01b0316146105795760405162461bcd60e51b815260206004820152602d60248201527f4f6e6c79207468652063726561746f72206f662074686973207265717565737460448201526c2063616e2066696e616c697a6560981b60648201526084015b60405180910390fd5b600a818154811061058c5761058c6121eb565b5f9182526020909120600d90910201600c0154610100900460ff16156105c45760405162461bcd60e51b8152600401610570906121ff565b600a81815481106105d7576105d76121eb565b5f9182526020909120600c600d90920201015460ff16156106365760405162461bcd60e51b815260206004820152601960248201527814995c5d595cdd08185b1c9958591e48199a5b985b1a5e9959603a1b6044820152606401610570565b600a8181548110610649576106496121eb565b905f5260205f2090600d020160050154600a828154811061066c5761066c6121eb565b905f5260205f2090600d02016008015410156106ca5760405162461bcd60e51b815260206004820152601960248201527f54617267657420616d6f756e74206e6f742072656163686564000000000000006044820152606401610570565b42600a82815481106106de576106de6121eb565b5f91825260209091206004600d909202010155600b54600a80546001600160a01b039092169163a9059cbb91908490811061071b5761071b6121eb565b905f5260205f2090600d02016007015f9054906101000a90046001600160a01b0316600a8481548110610750576107506121eb565b5f91825260209091206005600d9092020101546040516001600160e01b031960e085901b1681526001600160a01b03909216600483015260248201526044016020604051808303815f875af11580156107ab573d5f803e3d5ffd5b505050506040513d601f19601f820116820180604052508101906107cf919061222d565b506001600a82815481106107e5576107e56121eb565b5f9182526020909120600d90910201600c01805460ff191691151591909117905550565b5f805f805f60098681548110610821576108216121eb565b5f918252602090912060029091020180546001909101546001600160a01b0382169860ff600160a01b840481169950600160a81b9093049092169650945092505050565b335f9081526004602052604090205460ff166108935760405162461bcd60e51b81526004016105709061224c565b5f546001600160a01b038083169116036108fa5760405162461bcd60e51b815260206004820152602260248201527f43616e6e6f742072656d6f76652047726f7570206f776e65722061732041646d60448201526134b760f11b6064820152608401610570565b6001600160a01b03165f908152600460205260409020805460ff19169055565b335f9081526005602052604090205460ff166109485760405162461bcd60e51b815260040161057090612279565b600a828154811061095b5761095b6121eb565b5f9182526020909120600c600d90920201015460ff16156109ba5760405162461bcd60e51b815260206004820152601960248201527814995c5d595cdd08185b1c9958591e48199a5b985b1a5e9959603a1b6044820152606401610570565b600a82815481106109cd576109cd6121eb565b5f9182526020909120600d90910201600c0154610100900460ff1615610a055760405162461bcd60e51b8152600401610570906121ff565b600a8281548110610a1857610a186121eb565b905f5260205f2090600d0201600601548111610a9c5760405162461bcd60e51b815260206004820152603f60248201527f436f6e747269627574696f6e20616d6f756e742073686f756c6420626520677260448201527f6561746572207468616e206d696e696d756d20636f6e747269627574696f6e006064820152608401610570565b600b546040516323b872dd60e01b8152336004820152306024820152604481018390526001600160a01b03909116906323b872dd906064016020604051808303815f875af1158015610af0573d5f803e3d5ffd5b505050506040513d601f19601f82011682018060405250810190610b14919061222d565b50600a8281548110610b2857610b286121eb565b5f9182526020808320338452600a600d9093020191909101905260408120549003610bca57600a8281548110610b6057610b606121eb565b5f91825260208083206009600d9093020191909101805460018101825590835291200180546001600160a01b03191633179055600a805483908110610ba757610ba76121eb565b5f91825260208220600b600d9092020101805491610bc4836122d0565b91905055505b80600a8381548110610bde57610bde6121eb565b5f9182526020808320338452600a600d90930201919091019052604081208054909190610c0c9084906122e8565b9250508190555080600a8381548110610c2757610c276121eb565b905f5260205f2090600d02016008015f828254610c4491906122e8565b90915550505050565b335f9081526004602052604090205460ff16610c7b5760405162461bcd60e51b81526004016105709061224c565b600160098281548110610c9057610c906121eb565b905f5260205f2090600202015f0160156101000a81548160ff0219169083151502179055505f60065f60098481548110610ccc57610ccc6121eb565b5f9182526020808320600292909202909101546001600160a01b031683528201929092526040019020805460ff191691151591909117905550565b6060805f805f805f600a8881548110610d2257610d226121eb565b905f5260205f2090600d02019050805f0181600101826002015f9054906101000a90046001600160a01b0316836003015484600401548560050154858054610d69906122fb565b80601f0160208091040260200160405190810160405280929190818152602001828054610d95906122fb565b8015610de05780601f10610db757610100808354040283529160200191610de0565b820191905f5260205f20905b815481529060010190602001808311610dc357829003601f168201915b50505050509550848054610df3906122fb565b80601f0160208091040260200160405190810160405280929190818152602001828054610e1f906122fb565b8015610e6a5780601f10610e4157610100808354040283529160200191610e6a565b820191905f5260205f20905b815481529060010190602001808311610e4d57829003601f168201915b505050505094509650965096509650965096505091939550919395565b336001600160a01b0316600a8281548110610ea457610ea46121eb565b5f91825260209091206002600d9092020101546001600160a01b031614610ec9575f80fd5b6001600a8281548110610ede57610ede6121eb565b905f5260205f2090600d0201600c0160016101000a81548160ff02191690831515021790555050565b60028054610f14906122fb565b80601f0160208091040260200160405190810160405280929190818152602001828054610f40906122fb565b8015610f8b5780601f10610f6257610100808354040283529160200191610f8b565b820191905f5260205f20905b815481529060010190602001808311610f6e57829003601f168201915b505050505081565b335f9081526004602052604090205460ff16610fc15760405162461bcd60e51b81526004016105709061224c565b60055f60098381548110610fd757610fd76121eb565b5f91825260208083206002909202909101546001600160a01b0316835282019290925260400190205460ff161561105a5760405162461bcd60e51b815260206004820152602160248201527f5573657220697320616c726561647920746869732067726f7570206d656d62656044820152603960f91b6064820152608401610570565b60016009828154811061106f5761106f6121eb565b5f918252602082206002909102018054921515600160a01b0260ff60a01b199093169290921790915560098054839081106110ac576110ac6121eb565b5f91825260208083206002909202909101546001600160a01b0316808352600590915260408220805460ff1916600190811790915560088054918201815583527ff3f7a9fe364faab93b216da50a3214154f22a0a2b415b23a84c8169e8b636ee30180546001600160a01b03191682179055600780549193509091611130836122d0565b91905055505050565b600a818154811061114c5761114c6121eb565b5f9182526020909120600c600d90920201015460ff6101009091041615156001146111b95760405162461bcd60e51b815260206004820152601860248201527f5265717565737420686173206e6f742063616e63656c656400000000000000006044820152606401610570565b5f600a82815481106111cd576111cd6121eb565b5f9182526020808320338452600a600d90930201919091019052604090205490508061124c5760405162461bcd60e51b815260206004820152602860248201527f596f752068617665206e6f7420636f6e747269627574656420746f2074686973604482015267081c995c5d595cdd60c21b6064820152608401610570565b600b5460405163a9059cbb60e01b8152336004820152602481018390526001600160a01b039091169063a9059cbb906044016020604051808303815f875af115801561129a573d5f803e3d5ffd5b505050506040513d601f19601f820116820180604052508101906112be919061222d565b505050565b60018054610f14906122fb565b335f9081526005602052604090205460ff166112fe5760405162461bcd60e51b815260040161057090612279565b600a80546001810182555f91909152600d027fc65a7bb8d6351c1cf70c95a316cc6a92839c986682d98bc35f958f4883f9d2a8018061133d8782612380565b506001810161134c8682612380565b506006810193909355600283018054336001600160a01b0319918216179091554260038501556005840192909255600790920180549091166001600160a01b039092169190911790555050565b5f546001600160a01b031633146114015760405162461bcd60e51b815260206004820152602660248201527f596f757220617265206e6f74207468652063726561746f72206f66207468697360448201526502067726f75760d41b6064820152608401610570565b5f546001600160a01b0380831691160361146e5760405162461bcd60e51b815260206004820152602860248201527f43616e6e6f742072656d6f76652047726f7570206f776e65722066726f6d2074604482015267068652047726f75760c41b6064820152608401610570565b6001600160a01b03165f908152600660209081526040808320805460ff1990811690915560058352818420805482169055600490925290912080549091169055565b335f9081526006602052604090205460ff161561150f5760405162461bcd60e51b815260206004820152601b60248201527f467269656e64207265717565737420616c72656164792073656e7400000000006044820152606401610570565b335f9081526005602052604090205460ff16156115785760405162461bcd60e51b815260206004820152602160248201527f596f752061726520616c726561647920746869732067726f7570206d656d62656044820152603960f91b6064820152608401610570565b6009805460018181019092556002027f6e1540171b6c0c960b71a7020d9f60077f6af931a8bbf590da0223dacf75c7af8101805461ffff60a01b19339081166001600160b01b031990921691909117909155427f6e1540171b6c0c960b71a7020d9f60077f6af931a8bbf590da0223dacf75c7b0909201919091555f908152600660205260409020805460ff19169091179055565b335f9081526004602052604090205460ff1661163b5760405162461bcd60e51b81526004016105709061224c565b6001600160a01b03165f908152600460205260409020805460ff19166001179055565b336001600160a01b0316600a868154811061167b5761167b6121eb565b5f91825260209091206002600d9092020101546001600160a01b0316146116a0575f80fd5b600a85815481106116b3576116b36121eb565b5f9182526020909120600d90910201600c0154610100900460ff16156116eb5760405162461bcd60e51b8152600401610570906121ff565b83600a86815481106116ff576116ff6121eb565b905f5260205f2090600d02015f0190816117199190612380565b5082600a868154811061172e5761172e6121eb565b905f5260205f2090600d020160010190816117499190612380565b5081600a868154811061175e5761175e6121eb565b905f5260205f2090600d02016005018190555080600a8681548110611785576117856121eb565b905f5260205f2090600d0201600601819055505050505050565b60038054610f14906122fb565b600881815481106117bb575f80fd5b5f918252602090912001546001600160a01b0316905081565b335f9081526004602052604090205460ff166118025760405162461bcd60e51b81526004016105709061224c565b6001600160a01b0381165f9081526005602052604090205460ff16156118765760405162461bcd60e51b8152602060048201526024808201527f5573657220697320616c726561647920696e20746869732067726f7570206d6560448201526336b132b960e11b6064820152608401610570565b6001600160a01b03165f818152600560205260408120805460ff191660019081179091556008805491820181559091527ff3f7a9fe364faab93b216da50a3214154f22a0a2b415b23a84c8169e8b636ee30180546001600160a01b0319169091179055565b335f9081526005602052604090205460ff166119095760405162461bcd60e51b815260040161057090612279565b5f546001600160a01b031633036119625760405162461bcd60e51b815260206004820152601860248201527f47726f7570206f776e65722063616e6e6f74206c6561766500000000000000006044820152606401610570565b335f908152600560209081526040808320805460ff1990811690915560068352818420805482169055600490925290912080549091169055565b6001600160a01b0381165f9081526004602052604090205460ff166119d35760405162461bcd60e51b81526004016105709061224c565b60016119df8582612380565b5060026119ec8482612380565b5060036119f98382612380565b5050505050565b5f80600a8481548110611a1557611a156121eb565b5f91825260208083206001600160a01b0387168452600a600d9093020191909101905260409020549150505b92915050565b5f6060806060805f805f805f9054906101000a90046001600160a01b03166008600160026003600754600980549050600a8054905086805480602002602001604051908101604052809291908181526020018280548015611acf57602002820191905f5260205f20905b81546001600160a01b03168152600190910190602001808311611ab1575b50505050509650858054611ae2906122fb565b80601f0160208091040260200160405190810160405280929190818152602001828054611b0e906122fb565b8015611b595780601f10611b3057610100808354040283529160200191611b59565b820191905f5260205f20905b815481529060010190602001808311611b3c57829003601f168201915b50505050509550848054611b6c906122fb565b80601f0160208091040260200160405190810160405280929190818152602001828054611b98906122fb565b8015611be35780601f10611bba57610100808354040283529160200191611be3565b820191905f5260205f20905b815481529060010190602001808311611bc657829003601f168201915b50505050509450838054611bf6906122fb565b80601f0160208091040260200160405190810160405280929190818152602001828054611c22906122fb565b8015611c6d5780601f10611c4457610100808354040283529160200191611c6d565b820191905f5260205f20905b815481529060010190602001808311611c5057829003601f168201915b50505050509350975097509750975097509750975097509091929394959697565b5f805f60605f805f80600a8981548110611caa57611caa6121eb565b5f9182526020918290206006600d909202019081015460078201546008830154600b840154600c85015460098601805460408051828b0281018b0190915281815297995095976001600160a01b039095169693959094929360ff80841694610100909404169290918691830182828015611d4b57602002820191905f5260205f20905b81546001600160a01b03168152600190910190602001808311611d2d575b50505050509350975097509750975097509750975050919395979092949650565b5f60208284031215611d7c575f80fd5b5035919050565b80356001600160a01b0381168114611d99575f80fd5b919050565b5f60208284031215611dae575f80fd5b611db782611d83565b9392505050565b5f8060408385031215611dcf575f80fd5b50508035926020909101359150565b5f81518084525f5b81811015611e0257602081850181015186830182015201611de6565b505f602082860101526020601f19601f83011685010191505092915050565b60c081525f611e3360c0830189611dde565b8281036020840152611e458189611dde565b6001600160a01b0397909716604084015250506060810193909352608083019190915260a09091015292915050565b602081525f611db76020830184611dde565b634e487b7160e01b5f52604160045260245ffd5b5f82601f830112611ea9575f80fd5b813567ffffffffffffffff80821115611ec457611ec4611e86565b604051601f8301601f19908116603f01168101908282118183101715611eec57611eec611e86565b81604052838152866020858801011115611f04575f80fd5b836020870160208301375f602085830101528094505050505092915050565b5f805f805f60a08688031215611f37575f80fd5b853567ffffffffffffffff80821115611f4e575f80fd5b611f5a89838a01611e9a565b96506020880135915080821115611f6f575f80fd5b50611f7c88828901611e9a565b9450506040860135925060608601359150611f9960808701611d83565b90509295509295909350565b5f805f805f60a08688031215611fb9575f80fd5b85359450602086013567ffffffffffffffff80821115611fd7575f80fd5b611fe389838a01611e9a565b95506040880135915080821115611ff8575f80fd5b5061200588828901611e9a565b9598949750949560608101359550608001359392505050565b5f805f8060808587031215612031575f80fd5b843567ffffffffffffffff80821115612048575f80fd5b61205488838901611e9a565b95506020870135915080821115612069575f80fd5b61207588838901611e9a565b9450604087013591508082111561208a575f80fd5b5061209787828801611e9a565b9250506120a660608601611d83565b905092959194509250565b5f80604083850312156120c2575f80fd5b823591506120d260208401611d83565b90509250929050565b5f8151808452602080850194508084015f5b838110156121125781516001600160a01b0316875295820195908201906001016120ed565b509495945050505050565b6001600160a01b0389168152610100602082018190525f906121418382018b6120db565b90508281036040840152612155818a611dde565b905082810360608401526121698189611dde565b9050828103608084015261217d8188611dde565b60a0840196909652505060c081019290925260e09091015295945050505050565b87815260018060a01b038716602082015285604082015260e060608201525f6121ca60e08301876120db565b60808301959095525091151560a0830152151560c090910152949350505050565b634e487b7160e01b5f52603260045260245ffd5b60208082526014908201527314995c5d595cdd081a185cc818d85b98d95b195960621b604082015260600190565b5f6020828403121561223d575f80fd5b81518015158114611db7575f80fd5b6020808252601390820152722cb7ba9030b932903737ba10309030b236b4b760691b604082015260600190565b60208082526023908201527f596f757220617265206e6f74206120667269656e64206f66207468697320677260408201526206f75760ec1b606082015260800190565b634e487b7160e01b5f52601160045260245ffd5b5f600182016122e1576122e16122bc565b5060010190565b80820180821115611a4157611a416122bc565b600181811c9082168061230f57607f821691505b60208210810361232d57634e487b7160e01b5f52602260045260245ffd5b50919050565b601f8211156112be575f81815260208120601f850160051c810160208610156123595750805b601f850160051c820191505b8181101561237857828155600101612365565b505050505050565b815167ffffffffffffffff81111561239a5761239a611e86565b6123ae816123a884546122fb565b84612333565b602080601f8311600181146123e1575f84156123ca5750858301515b5f19600386901b1c1916600185901b178555612378565b5f85815260208120601f198616915b8281101561240f578886015182559484019460019091019084016123f0565b508582101561242c57878501515f19600388901b60f8161c191681555b5050505050600190811b0190555056fea264697066735822122051eed2530ea9cf73fd25ca53f238bbd2fc276b5dd3a2fbc4ae651a4d20bf0d2c64736f6c63430008140033",
    "sourcePath": "/home/mahadeshwaraprasad/Dapps/Sharewise/ethereum/contract/Group.sol",
    "compiler": {
        "name": "solc",
        "version": "0.8.20+commit.a1b79de6"
    },
    "functionHashes": {
        "acceptRequest(uint256)": "4ba1f098",
        "addFriends(address)": "c463d8ad",
        "admin(address)": "63a846f8",
        "appointAdmin(address)": "98235663",
        "approveRequest(uint256,uint256)": "2c0a90a9",
        "cancelRequest(uint256)": "3015394c",
        "checkFriend(address)": "18140055",
        "createRequest(string,string,uint256,uint256,address)": "7f97ef38",
        "editGroupDetails(string,string,string,address)": "da249f2e",
        "editRequest(uint256,string,string,uint256,uint256)": "9a084995",
        "finalizeRequest(uint256)": "03441006",
        "friendReqCheck(address)": "0dc9c725",
        "friends(address)": "1ddabf7a",
        "friendsCount()": "e555134f",
        "friendsList(uint256)": "bdf74c35",
        "getApproverAmount(uint256,address)": "f69bed91",
        "getDetails()": "fbbf93a0",
        "getFriendRequest(uint256)": "0a1a0dcc",
        "getRequest1(uint256)": "2e25bbba",
        "getRequest2(uint256)": "fc5ee8ab",
        "groupDescription()": "35eb9f2e",
        "groupName()": "783cec80",
        "groupOwner()": "5d1f8ad2",
        "imageUrl()": "aba83150",
        "leaveGroup()": "cb1fb490",
        "rejectRequest(uint256)": "2d7788db",
        "removeAdmin(address)": "1785f53c",
        "removeFriend(address)": "80cee8a5",
        "sendFriendRequest()": "84bcddb6",
        "takeAmount(uint256)": "4d32d7aa",
        "token()": "fc0c546a"
    },
    "gasEstimates": {
        "creation": {
            "codeDepositCost": "1866000",
            "executionCost": "infinite",
            "totalCost": "infinite"
        },
        "external": {
            "acceptRequest(uint256)": "136838",
            "addFriends(address)": "77532",
            "admin(address)": "2639",
            "appointAdmin(address)": "26842",
            "approveRequest(uint256,uint256)": "infinite",
            "cancelRequest(uint256)": "31186",
            "checkFriend(address)": "2614",
            "createRequest(string,string,uint256,uint256,address)": "infinite",
            "editGroupDetails(string,string,string,address)": "infinite",
            "editRequest(uint256,string,string,uint256,uint256)": "infinite",
            "finalizeRequest(uint256)": "infinite",
            "friendReqCheck(address)": "2619",
            "friends(address)": "2618",
            "friendsCount()": "2405",
            "friendsList(uint256)": "4722",
            "getApproverAmount(uint256,address)": "4848",
            "getDetails()": "infinite",
            "getFriendRequest(uint256)": "6962",
            "getRequest1(uint256)": "infinite",
            "getRequest2(uint256)": "infinite",
            "groupDescription()": "infinite",
            "groupName()": "infinite",
            "groupOwner()": "2424",
            "imageUrl()": "infinite",
            "leaveGroup()": "77386",
            "rejectRequest(uint256)": "57615",
            "removeAdmin(address)": "28986",
            "removeFriend(address)": "77541",
            "sendFriendRequest()": "99568",
            "takeAmount(uint256)": "infinite",
            "token()": "2424"
        }
    }
}